:020000020000FC
:100000000C948D010F932F933F93009132000F7D3D
:1000100024FD00620093340000912C00077F25FD31
:10002000086000932E0000910001077F26FD086004
:1000300000930201009100010F7E27FD00610093F3
:1000400002010091000100640093020131E00E946E
:100050005001009100010F7B009302013F912F910D
:100060000F9108952F933F930F93DF93CF93DEB7B4
:10007000CDB729850E94020032E30E9450012295EB
:100080000E94020032E30E945001CF91DF910F9154
:100090003F912F9108950F933F932F93DF93CF9329
:1000A000DEB7CDB72985009100010F7D00930201D5
:1000B0002F930E9432002F91243018F432E00E94D6
:1000C0005A01CF91DF912F913F910F9108950F9396
:1000D0002F93DF93CF93DEB7CDB728850091000132
:1000E0000062009302012F930E9432002F91009131
:1000F0000102039500930102CF91DF912F910F919F
:1001000008950F931F93DF93CF93FF93EF93DEB781
:10011000CDB7FB85EA851191103029F01F930E941D
:1001200067001F91F8CFEF91FF91CF91DF911F9161
:100130000F9108950F931F93DF93CF93DEB7CDB741
:100140000885198511301CF011E00C94AA000F30BD
:100150000CF00FE01093000200930102113019F42B
:1001600010EC0C94B40010E8010F0F930E944B00A8
:100170000F91CF91DF911F910F9108950F9301E09F
:100180000F930E944B000F910027009300020093F1
:1001900001020F9108950F932F933F930091330025
:1001A000006200933300009132000F7D0093340011
:1001B00000912D00086000932D0000912C00077F16
:1001C00000932E000091010108600093010100914D
:1001D0000001077F0093020100910101006100937B
:1001E0000101009100010F7E0093020100910101C5
:1001F000006200930101009100010F7D0093020154
:1002000000910101006400930101009100010F7B46
:10021000009302013FE00E945A0135E00E945A011A
:1002200020E30E94020035E00E945A0120E30E9470
:10023000020057E03FE00E945A015A95D9F720E3A7
:100240000E94020032E30E94500120E20E9402005C
:1002500032E30E94500108E20F930E944B000F917D
:1002600008E00F930E944B000F9101E00F930E9452
:100270004B000F9132E00E945A0106E00F930E945A
:100280004B000F910CE00F930E944B000F91002741
:1002900000930002009301023F912F910F91089566
:1002A0000F933F9305E00A95F1F73A95D9F73F91FF
:1002B0000F9108950F931F933F93DF93CF930DEF0B
:1002C000309F012D0295007FD02F002D0295102F19
:1002D000007F1F70C02FD12B2197F1F7CF91DF91B5
:1002E0003F911F910F9108950F93FF93EF93BF9349
:1002F000AF93DF93CF93DEB7CDB7EB85FC85AD85AC
:10030000BE85059100300D93E1F7CF91DF91AF915C
:10031000BF91EF91FF910F91089540E051E00E944D
:10032000CB0003E103D00ED002D1FCCF1F930F927C
:100330001DE0019F800111E1010F0F73002E0F904E
:100340001F9108950F937F936F930F9270E060E079
:10035000002E007291F4002D007199F4002D0870A8
:10036000A1F4002D0470A9F4002D0270B1F4002D49
:100370000170B9F4002D0C94D5017260002D0C941D
:10038000AC017860002D0C94AF016260002D0C94DC
:10039000B2016860002D0C94B5016062002D0C94D0
:1003A000B8016068002D0C94D50175B960930B01FC
:1003B000662777270F906F917F910F910895C2E084
:1003C000D2E06F920F931F9310E32696602E017078
:1003D000A9F4062D10E30270B9F4062D10E30470A1
:1003E000C9F4062D10E30870D9F4062D10E300714E
:1003F000E9F4062D10E30072F9F4062D11E31883D9
:100400001197062D0C94AC0111E318831197062D5A
:100410000C94AF0111E318831197062D0C94B201CF
:1004200011E318831197062D0C94B50111E318837D
:100430001197062D0C94B80111E318831197062D1E
:100440001F910F916F9008950F921F922F929F937B
:100450003F924F933F932F930F93AF93BF93A6E693
:10046000B2E090E3392E149644E0992733279C9309
:100470001197202F203838F4902F092E9AE0192E4A
:1004800022240C94490230E0321B032F3DE20C94ED
:100490003C02011460F0239401180114E0F7030CEE
:1004A0000C9211974A95022C22240C944902030CB9
:1004B0000C9211974A95413019F022272C931197ED
:1004C0003C93BF91AF910F912F913F914F913F90EE
:1004D0009F912F901F900F9008952F9321E02F93BD
:1004E0002BE02F930E949A002F912F9122E02F93BF
:1004F00022E02F930E9481002F912F912F91089538
:100500000E94CB002F930E94BE0020E02F9320E09A
:100510002F930E949A002F912F9122E02F9326E68D
:100520002F930E9481002F912F912F9108950F9367
:1005300000E00E945A0103950A3FD8F30F910895F5
:00000001FF
