S00A000041342E73726563A5
S113000071C000008EC000008CC000008AC00000D7
S113001088C0000086C0000084C0000082C00000C8
S113002080C000007EC000007CC000007AC00000D8
S113003078C0000076C0000074C0000072C00000E8
S113004070C000006EC000006CC000006AC00000F8
S113005068C0000066C0000064C00000C2C20000A6
S113006060C000005EC000005CC000005AC0000018
S113007058C0000056C0000054C0000052C0000028
S113008050C000004EC000004CC000004AC0000038
S113009048C0000046C0000044C0000042C0000048
S11300A040C000003EC000003CC000003AC0000058
S11300B038C0000036C0000034C0000032C0000068
S11300C030C000002EC000002CC000002AC0000078
S11300D028C0000026C0000024C0000022C0000088
S11300E020C0000011241FBECFEFD1E2DEBFCDBF80
S11300F000E00CBF12E0A0E0B2E0EEE8F6E000E0C1
S11301000BBF02C007900D92A63FB107D9F723E0B9
S1130110A6EFB2E001C01D92AC38B207E1F7ABD252
S1130120B4C26ECFE2E0F1E090819F7E9083882399
S11301301CF4908190619083E2E0F1E09081977FDC
S1130140908386FF03C0908198609083739885FDA7
S1130150739AA59884FDA59AE2E0F1E08081806419
S1130160808385E08A95F1F7000080818F7B80830E
S11301700895CF93C82FE2E0F1E080818F7D8083E2
S11301808C2FD0DF8C2F8295807FCCDF87EC90E0A2
S11301900197F1F700C00000C43018F0C03850F0E7
S11301A007C08FE39FE10197F1F700C00000C0E8AA
S11301B0C0930002CF910895CF93C82FE2E0F1E0FD
S11301C08081806280838C2FADDF8C2F8295807F2D
S11301D0A9DF87EC90E00197F1F700C0000080915F
S11301E000028F5F80930002803921F0803D21F46A
S11301F080E801C080ECBDDFCF910895CF93DF93F9
S1130200EC018881882329F02196D6DF8991811118
S1130210FCCFDF91CF9108959D9A6B9AE1E0F1E0D4
S11302208081886080838081806180838081806216
S11302308083808180648083E2E0F1E080818F7B31
S1130240808380818F7D80838FE59AEE0197F1F71B
S113025000C0000080E366DF8FE090E40197F1F7CF
S113026000C0000080E35EDF8FE891E00197F1F7C2
S113027000C0000080E356DF87EC90E00197F1F7BF
S113028000C0000080E24EDF87EC90E00197F1F7B8
S113029000C0000088E26DDF88E06BDF81E069DF89
S11302A086E067DF8CE065CF0895EAE7F0E08081BF
S11302B080648083808186FDFDCF8091780090E00A
S11302C0909327038093260320917900922B08951D
S11302D0863123E0920758F081E090E020912603D4
S11302E030912703283E310540F180E008959C01B8
S11302F02B5232402B3E310590F021553F4F2F3A7F
S1130300310580F027543F4F293B310570F02F56BB
S11303103F4F2139310560F0C39768F0089582E0BA
S113032090E0089583E090E0089584E090E00895DB
S113033085E090E0089586E090E0089580910003C0
S113034090910103892B99F483E192E09093060242
S11303508093050288E492E0909304028093030260
S113036081E090E0909301038093000308958AE66E
S113037092E090930602809305028CEA92E09093B7
S11303800402809303021092010310920003089563
S11303908CDF9EDF039751F4809101029091020259
S11303A0880F991F90930202809301027EDF90DFF1
S11303B0069769F4809101029091020299230CF44A
S11303C00196959587959093020280930102089572
S11303D010920A0114B88091FE029091FF028630B7
S11303E09105BCF4FC01E35FFD4F808185B9E09188
S11303F0FE02F091FF02E95FFD4F808180930B01C3
S11304008091FE029091FF0201969093FF028093E7
S1130410FE0280910102909102021816190684F4DA
S113042080E090E0EFE9FFE03197F1F700C00000D1
S1130430019620910102309102028217930794F3EE
S11304408091FE029091FF02069721F41092FF0220
S11304501092FE020895DC01FC0101900020E9F7EE
S1130460AF01481B590B2091F6023091F70240511D
S113047051092417350760F4A20FB31FE4E1F3E038
S113048024E233E08D918193E217F307D9F723C077
S1130490E4E1F3E023E233E091819193E217F3077F
S11304A0D9F78091F8029091F902A80FB91F2C9105
S11304B0209323030196803191052CF49093F90243
S11304C08093F80208C01092F9021092F802109278
S11304D0F7021092F6028091F6029091F7020196CB
S11304E09093F7028093F6020895DC01FC010190D9
S11304F00020E9F7AF01481B590B2091FA02309113
S1130500FB02405151092417350760F4A20FB31FB1
S1130510E4E0F3E024E133E08D918193E217F30703
S1130520D9F723C0E4E0F3E023E133E09181919330
S1130530E217F307D9F78091FC029091FD02A80F0E
S1130540B91F2C91209313030196803191052CF44B
S11305509093FD028093FC0208C01092FD02109259
S1130560FC021092FB021092FA028091FA0290911E
S1130570FB0201969093FB028093FA0208954CDEED
S1130580809105029091060266DF80E8F2DD84E145
S113059093E034DE8091030290910402A6DF80ECA4
S11305A0E8DD84E093E02ADE13CF08957EDE90DE5A
S11305B00497E1F701D0FACF78DE8ADE029709F4D6
S11305C0BDDE73DE85DE039721F06FDE81DE0697E4
S11305D009F4DEDE6ADE7CDE059709F4E7DFCFDFAF
S11305E0EBCF1F920F920FB60F9211240BB60F92FE
S11305F02F933F934F935F936F937F938F939F9327
S1130600AF93BF93EF93FF93809102039091030301
S11306109C012F5F3F4F2630310574F0059790936E
S113062003038093020341DE53DE009709F4C4DF21
S1130630019731F483DEC0DF309303032093020378
S1130640FF91EF91BF91AF919F918F917F916F91A6
S11306505F914F913F912F910F900BBE0F900FBE62
S11306600F901F90189581E080936E0016BC14BC07
S113067085E085BD089587E880937A0080E48093BF
S11106807C00F1DFC9DD7894FFCFF894FFCF42
S113068E80F401AC026A0200000208208002080015
S113069E0000005468697320697320746865206DC6
S11306AE657373616765206F6E2074686520666973
S11306BE727374206C696E652E20486572652069AC
S11306CE7420676F65732E002D2D2D206275792091
S11306DE2D2D2D206D6F7265202D2D2D20706F7098
S11306EE202D2D2D206275792000546869732069A0
S11306FE7320746865206669727374206D657373F4
S113070E61676520646973706C61796564206F6ECE
S113071E20746865206669727374206C696E652036
S113072E6F6620746865204C43442E004F6E20740F
S113073E6865207365636F6E64206C696E65206FE7
S113074E6620746865204C43442074686572652085
S113075E697320616E6F74686572206D6573736161
S113076E67652074686174206973207363726F6C9B
S109077E6C65642E00000E
S9030000FC
