:020000020000FC
:0200000000C23C
:0200480046C2AE
:0200740005C2C3
:1000E8000C9401020F932F933F93009132000F7DE0
:1000F80024FD00620093340000912C00077F25FD49
:10010800086000932E0000910001077F26FD08601B
:1001180000930201009100010F7E27FD006100930A
:1001280002010091000100640093020131E00E9485
:10013800C401009100010F7B009302013F912F91B0
:100148000F9108952F933F930F93DF93CF93DEB7CB
:10015800CDB729850E94760032E30E94C40122951A
:100168000E94760032E30E94C401CF91DF910F9183
:100178003F912F9108950F933F932F93DF93CF9340
:10018800DEB7CDB72985009100010F7D00930201EC
:100198002F930E94A6002F91243018F432E00E9479
:1001A800CE01CF91DF912F913F910F9108950F9339
:1001B8002F93DF93CF93DEB7CDB728850091000149
:1001C8000062009302012F930E94A6002F910091D4
:1001D8000102039500930102CF91DF912F910F91B6
:1001E80008950F931F93DF93CF93FF93EF93DEB799
:1001F800CDB7FB85EA851191103029F01F930E9435
:10020800DB001F91F8CFEF91FF91CF91DF911F9104
:100218000F9108950F931F93DF93CF93DEB7CDB758
:100228000885198511301CF011E00C941E010F305F
:100238000CF00FE01093000200930102113019F442
:1002480010EC0C94280110E8010F0F930E94BF00D6
:100258000F91CF91DF911F910F9108950F9301E0B6
:100268000F930E94BF000F91002700930002009394
:1002780001020F9108950F932F933F93009133003C
:10028800006200933300009132000F7D0093340028
:1002980000912D00086000932D0000912C00077F2D
:1002A80000932E0000910101086000930101009164
:1002B8000001077F00930201009101010061009392
:1002C8000101009100010F7E0093020100910101DC
:1002D800006200930101009100010F7D009302016B
:1002E80000910101006400930101009100010F7B5E
:1002F800009302013FE00E94CE0135E00E94CE014A
:1003080020E30E94760035E00E94CE0120E30E949F
:10031800760057E03FE00E94CE015A95D9F720E3D6
:100328000E94760032E30E94C40120E20E94760017
:1003380032E30E94C40108E20F930E94BF000F91AC
:1003480008E00F930E94BF000F9101E00F930E94F5
:10035800BF000F9132E00E94CE0106E00F930E9489
:10036800BF000F910CE00F930E94BF000F91002770
:1003780000930002009301023F912F910F9108957D
:100388000F933F9305E00A95F1F73A95D9F73F9116
:100398000F9108950F931F933F93DF93CF930DEF22
:1003A800309F012D0295007FD02F002D0295102F30
:1003B800007F1F70C02FD12B2197F1F7CF91DF91CC
:1003C8003F911F910F9108950F93FF93EF93BF9360
:1003D800AF93DF93CF93DEB7CDB7EB85FC85AD85C3
:1003E800BE85059100300D93E1F7CF91DF91AF9174
:1003F800BF91EF91FF910F9108950E943F0100E294
:100408000093800005E00093810000E000938200E3
:1004180004E000936F000AE700938B0002E1009369
:100428008A0000E400937C0005E000937B000FEA5B
:1004380000937A000EEF00937E000FEF00937D008B
:1004480086E193E0E8EBF6E0AAE2B2E00E94550309
:100458000F9301E00F930AE00F930E940E010F9192
:100468000F9102E00F930AE20F930E94F5000F919B
:100478000F910F917894FFCF3F93AA27BB27EE27C0
:10048800FF27A0917800B0917900A817B90758F014
:10049800313049F00E94C9020E9418030E94F702F5
:1004A8000E94910212C031E00E94C9020E94180302
:1004B8000E94D6020E946C02A0917800B091790047
:1004C800A817B90708F001C032E03F9118951895B0
:1004D8000F931F9350D010E3010E110E00E211127A
:1004E800012D009302020092030200E0009304022F
:1004F8001F910F910F9300E00F9303E00F930E9459
:100508000E010F910F9102E00F9302E00F930E94EA
:10051800F5000F910F910F9108950F931F9305FF09
:1005280004C01DE21093160203C010E210931602D5
:1005380022D010E3010E110E00E21112012D0093DA
:1005480017020092180200E0009319021F910F9100
:100558000F9300E00F9302E00F930E940E010F919A
:100568000F9102E00F9306E10F930E94F5000F919F
:100578000F910F9108950F9311240A3018F00A5023
:100588001394FBCF002E0F9108951F931F920F9283
:100598001DE0019F002D11E1010F0F730F901F90B7
:1005A8001F910895EF93E0ECFF93F6E0AF93A2E07C
:1005B800BF93B2E00E9455030F9300E00F9300E051
:1005C8000F930E940E010F910F9102E00F9302E02A
:1005D8000F930E94F5000F910F910F91BF91AF916A
:1005E800FF91EF910895EF93E8ECFF93F6E0AF9356
:1005F800A6E1BF93B2E00E9455030F9300E00F936A
:1006080000E00F930E940E010F910F9102E00F93EB
:1006180006E10F930E94F5000F910F910F91BF9182
:10062800AF91FF91EF9108950F937F936F930F927E
:1006380070E060E0002E007291F4002D007199F4D2
:10064800002D0870A1F4002D0470A9F4002D02708B
:10065800B1F4002D0170B9F4002D0C944B037260B5
:10066800002D0C9422037860002D0C942503626001
:10067800002D0C9428036860002D0C942B036062F5
:10068800002D0C942E036068002D0C944B0375B953
:1006980060930B01662777270F906F917F910F91D9
:1006A800089520E035913D9323952630D8F3089599
:1006B800562D353236310000483A202020250000DA
:0806C800543A202020430000F9
:00000001FF
