:020000020000FC
:1000000040E051E008E100930A0104B91DE0019FBE
:10001000002D11E1010F0F73002E70E060E00072FF
:1000200091F4002D007199F4002D0870A1F4002DB9
:100030000470A9F4002D0270B1F4002D0170B9F420
:10004000002D0C943B007260002D0C94120078601F
:10005000002D0C9415006260002D0C94180068604F
:10006000002D0C941B006062002D0C941E00606833
:10007000002D0C943B0075B960930B016627772720
:100080003327222744E100000000000000000000A8
:100090000000000000000000000000000000000060
:1000A00000000000000000000000000000004A9571
:0E00B000403049F7250F341F3A3F21F7A7CF04
:00000001FF
